{
  "_format": "hh-sol-artifact-1",
  "contractName": "WBTC",
  "sourceName": "contracts/WBTC.sol",
  "abi": [
    {
      "inputs": [],
      "stateMutability": "nonpayable",
      "type": "constructor"
    },
    {
      "inputs": [
        {
          "internalType": "address",
          "name": "target",
          "type": "address"
        }
      ],
      "name": "AddressEmptyCode",
      "type": "error"
    },
    {
      "inputs": [
        {
          "internalType": "address",
          "name": "implementation",
          "type": "address"
        }
      ],
      "name": "ERC1967InvalidImplementation",
      "type": "error"
    },
    {
      "inputs": [],
      "name": "ERC1967NonPayable",
      "type": "error"
    },
    {
      "inputs": [
        {
          "internalType": "address",
          "name": "spender",
          "type": "address"
        },
        {
          "internalType": "uint256",
          "name": "allowance",
          "type": "uint256"
        },
        {
          "internalType": "uint256",
          "name": "needed",
          "type": "uint256"
        }
      ],
      "name": "ERC20InsufficientAllowance",
      "type": "error"
    },
    {
      "inputs": [
        {
          "internalType": "address",
          "name": "sender",
          "type": "address"
        },
        {
          "internalType": "uint256",
          "name": "balance",
          "type": "uint256"
        },
        {
          "internalType": "uint256",
          "name": "needed",
          "type": "uint256"
        }
      ],
      "name": "ERC20InsufficientBalance",
      "type": "error"
    },
    {
      "inputs": [
        {
          "internalType": "address",
          "name": "approver",
          "type": "address"
        }
      ],
      "name": "ERC20InvalidApprover",
      "type": "error"
    },
    {
      "inputs": [
        {
          "internalType": "address",
          "name": "receiver",
          "type": "address"
        }
      ],
      "name": "ERC20InvalidReceiver",
      "type": "error"
    },
    {
      "inputs": [
        {
          "internalType": "address",
          "name": "sender",
          "type": "address"
        }
      ],
      "name": "ERC20InvalidSender",
      "type": "error"
    },
    {
      "inputs": [
        {
          "internalType": "address",
          "name": "spender",
          "type": "address"
        }
      ],
      "name": "ERC20InvalidSpender",
      "type": "error"
    },
    {
      "inputs": [],
      "name": "FailedInnerCall",
      "type": "error"
    },
    {
      "inputs": [],
      "name": "InvalidInitialization",
      "type": "error"
    },
    {
      "inputs": [],
      "name": "NotInitializing",
      "type": "error"
    },
    {
      "inputs": [
        {
          "internalType": "address",
          "name": "owner",
          "type": "address"
        }
      ],
      "name": "OwnableInvalidOwner",
      "type": "error"
    },
    {
      "inputs": [
        {
          "internalType": "address",
          "name": "account",
          "type": "address"
        }
      ],
      "name": "OwnableUnauthorizedAccount",
      "type": "error"
    },
    {
      "inputs": [],
      "name": "UUPSUnauthorizedCallContext",
      "type": "error"
    },
    {
      "inputs": [
        {
          "internalType": "bytes32",
          "name": "slot",
          "type": "bytes32"
        }
      ],
      "name": "UUPSUnsupportedProxiableUUID",
      "type": "error"
    },
    {
      "anonymous": false,
      "inputs": [
        {
          "indexed": true,
          "internalType": "address",
          "name": "owner",
          "type": "address"
        },
        {
          "indexed": true,
          "internalType": "address",
          "name": "spender",
          "type": "address"
        },
        {
          "indexed": false,
          "internalType": "uint256",
          "name": "value",
          "type": "uint256"
        }
      ],
      "name": "Approval",
      "type": "event"
    },
    {
      "anonymous": false,
      "inputs": [
        {
          "indexed": false,
          "internalType": "uint64",
          "name": "version",
          "type": "uint64"
        }
      ],
      "name": "Initialized",
      "type": "event"
    },
    {
      "anonymous": false,
      "inputs": [
        {
          "indexed": true,
          "internalType": "address",
          "name": "previousOwner",
          "type": "address"
        },
        {
          "indexed": true,
          "internalType": "address",
          "name": "newOwner",
          "type": "address"
        }
      ],
      "name": "OwnershipTransferred",
      "type": "event"
    },
    {
      "anonymous": false,
      "inputs": [
        {
          "indexed": true,
          "internalType": "address",
          "name": "from",
          "type": "address"
        },
        {
          "indexed": false,
          "internalType": "uint256",
          "name": "amount",
          "type": "uint256"
        },
        {
          "indexed": false,
          "internalType": "bytes",
          "name": "data",
          "type": "bytes"
        }
      ],
      "name": "TokensBurned",
      "type": "event"
    },
    {
      "anonymous": false,
      "inputs": [
        {
          "indexed": true,
          "internalType": "address",
          "name": "from",
          "type": "address"
        },
        {
          "indexed": true,
          "internalType": "address",
          "name": "to",
          "type": "address"
        },
        {
          "indexed": false,
          "internalType": "uint256",
          "name": "value",
          "type": "uint256"
        }
      ],
      "name": "Transfer",
      "type": "event"
    },
    {
      "anonymous": false,
      "inputs": [
        {
          "indexed": true,
          "internalType": "address",
          "name": "implementation",
          "type": "address"
        }
      ],
      "name": "Upgraded",
      "type": "event"
    },
    {
      "inputs": [],
      "name": "UPGRADE_INTERFACE_VERSION",
      "outputs": [
        {
          "internalType": "string",
          "name": "",
          "type": "string"
        }
      ],
      "stateMutability": "view",
      "type": "function"
    },
    {
      "inputs": [
        {
          "internalType": "address",
          "name": "owner",
          "type": "address"
        },
        {
          "internalType": "address",
          "name": "spender",
          "type": "address"
        }
      ],
      "name": "allowance",
      "outputs": [
        {
          "internalType": "uint256",
          "name": "",
          "type": "uint256"
        }
      ],
      "stateMutability": "view",
      "type": "function"
    },
    {
      "inputs": [
        {
          "internalType": "address",
          "name": "spender",
          "type": "address"
        },
        {
          "internalType": "uint256",
          "name": "value",
          "type": "uint256"
        }
      ],
      "name": "approve",
      "outputs": [
        {
          "internalType": "bool",
          "name": "",
          "type": "bool"
        }
      ],
      "stateMutability": "nonpayable",
      "type": "function"
    },
    {
      "inputs": [
        {
          "internalType": "address",
          "name": "account",
          "type": "address"
        }
      ],
      "name": "balanceOf",
      "outputs": [
        {
          "internalType": "uint256",
          "name": "",
          "type": "uint256"
        }
      ],
      "stateMutability": "view",
      "type": "function"
    },
    {
      "inputs": [
        {
          "internalType": "uint256",
          "name": "amount",
          "type": "uint256"
        },
        {
          "internalType": "bytes",
          "name": "data",
          "type": "bytes"
        }
      ],
      "name": "burn",
      "outputs": [],
      "stateMutability": "nonpayable",
      "type": "function"
    },
    {
      "inputs": [],
      "name": "decimals",
      "outputs": [
        {
          "internalType": "uint8",
          "name": "",
          "type": "uint8"
        }
      ],
      "stateMutability": "view",
      "type": "function"
    },
    {
      "inputs": [
        {
          "internalType": "address",
          "name": "deployer",
          "type": "address"
        }
      ],
      "name": "initialize",
      "outputs": [],
      "stateMutability": "nonpayable",
      "type": "function"
    },
    {
      "inputs": [
        {
          "internalType": "address",
          "name": "to",
          "type": "address"
        },
        {
          "internalType": "uint256",
          "name": "amount",
          "type": "uint256"
        }
      ],
      "name": "mint",
      "outputs": [],
      "stateMutability": "nonpayable",
      "type": "function"
    },
    {
      "inputs": [],
      "name": "name",
      "outputs": [
        {
          "internalType": "string",
          "name": "",
          "type": "string"
        }
      ],
      "stateMutability": "view",
      "type": "function"
    },
    {
      "inputs": [],
      "name": "owner",
      "outputs": [
        {
          "internalType": "address",
          "name": "",
          "type": "address"
        }
      ],
      "stateMutability": "view",
      "type": "function"
    },
    {
      "inputs": [],
      "name": "proxiableUUID",
      "outputs": [
        {
          "internalType": "bytes32",
          "name": "",
          "type": "bytes32"
        }
      ],
      "stateMutability": "view",
      "type": "function"
    },
    {
      "inputs": [],
      "name": "renounceOwnership",
      "outputs": [],
      "stateMutability": "nonpayable",
      "type": "function"
    },
    {
      "inputs": [],
      "name": "symbol",
      "outputs": [
        {
          "internalType": "string",
          "name": "",
          "type": "string"
        }
      ],
      "stateMutability": "view",
      "type": "function"
    },
    {
      "inputs": [],
      "name": "totalSupply",
      "outputs": [
        {
          "internalType": "uint256",
          "name": "",
          "type": "uint256"
        }
      ],
      "stateMutability": "view",
      "type": "function"
    },
    {
      "inputs": [
        {
          "internalType": "address",
          "name": "to",
          "type": "address"
        },
        {
          "internalType": "uint256",
          "name": "value",
          "type": "uint256"
        }
      ],
      "name": "transfer",
      "outputs": [
        {
          "internalType": "bool",
          "name": "",
          "type": "bool"
        }
      ],
      "stateMutability": "nonpayable",
      "type": "function"
    },
    {
      "inputs": [
        {
          "internalType": "address",
          "name": "from",
          "type": "address"
        },
        {
          "internalType": "address",
          "name": "to",
          "type": "address"
        },
        {
          "internalType": "uint256",
          "name": "value",
          "type": "uint256"
        }
      ],
      "name": "transferFrom",
      "outputs": [
        {
          "internalType": "bool",
          "name": "",
          "type": "bool"
        }
      ],
      "stateMutability": "nonpayable",
      "type": "function"
    },
    {
      "inputs": [
        {
          "internalType": "address",
          "name": "newOwner",
          "type": "address"
        }
      ],
      "name": "transferOwnership",
      "outputs": [],
      "stateMutability": "nonpayable",
      "type": "function"
    },
    {
      "inputs": [
        {
          "internalType": "address",
          "name": "newImplementation",
          "type": "address"
        },
        {
          "internalType": "bytes",
          "name": "data",
          "type": "bytes"
        }
      ],
      "name": "upgradeToAndCall",
      "outputs": [],
      "stateMutability": "payable",
      "type": "function"
    }
  ],
  "bytecode": "0x60a06040523073ffffffffffffffffffffffffffffffffffffffff1660809073ffffffffffffffffffffffffffffffffffffffff168152503480156200004457600080fd5b50620000556200005b60201b60201c565b620001cf565b60006200006d6200016560201b60201c565b90508060000160089054906101000a900460ff1615620000b9576040517ff92ee8a900000000000000000000000000000000000000000000000000000000815260040160405180910390fd5b67ffffffffffffffff80168160000160009054906101000a900467ffffffffffffffff1667ffffffffffffffff1614620001625767ffffffffffffffff8160000160006101000a81548167ffffffffffffffff021916908367ffffffffffffffff1602179055507fc7f505b2f371ae2175ee4913f4499e1f2633a7b5936321eed1cdaeb6115181d267ffffffffffffffff604051620001599190620001b2565b60405180910390a15b50565b60007ff0c57e16840df040f15088dc2f81fe391c3923bec73e23a9662efc9c229c6a00905090565b600067ffffffffffffffff82169050919050565b620001ac816200018d565b82525050565b6000602082019050620001c96000830184620001a1565b92915050565b60805161258a620001f960003960008181610dbb01528181610e100152610fcb015261258a6000f3fe6080604052600436106101095760003560e01c8063715018a611610095578063ad3cb1cc11610064578063ad3cb1cc14610360578063c4d66de81461038b578063dd62ed3e146103b4578063f2fde38b146103f1578063fe9d93031461041a57610109565b8063715018a6146102b65780638da5cb5b146102cd57806395d89b41146102f8578063a9059cbb1461032357610109565b8063313ce567116100dc578063313ce567146101de57806340c10f19146102095780634f1ef2861461023257806352d1902d1461024e57806370a082311461027957610109565b806306fdde031461010e578063095ea7b31461013957806318160ddd1461017657806323b872dd146101a1575b600080fd5b34801561011a57600080fd5b50610123610443565b6040516101309190611b3b565b60405180910390f35b34801561014557600080fd5b50610160600480360381019061015b9190611c05565b6104e4565b60405161016d9190611c60565b60405180910390f35b34801561018257600080fd5b5061018b610507565b6040516101989190611c8a565b60405180910390f35b3480156101ad57600080fd5b506101c860048036038101906101c39190611ca5565b61051f565b6040516101d59190611c60565b60405180910390f35b3480156101ea57600080fd5b506101f361054e565b6040516102009190611d14565b60405180910390f35b34801561021557600080fd5b50610230600480360381019061022b9190611c05565b610557565b005b61024c60048036038101906102479190611e64565b61056d565b005b34801561025a57600080fd5b5061026361058c565b6040516102709190611ed9565b60405180910390f35b34801561028557600080fd5b506102a0600480360381019061029b9190611ef4565b6105bf565b6040516102ad9190611c8a565b60405180910390f35b3480156102c257600080fd5b506102cb610616565b005b3480156102d957600080fd5b506102e261062a565b6040516102ef9190611f30565b60405180910390f35b34801561030457600080fd5b5061030d610662565b60405161031a9190611b3b565b60405180910390f35b34801561032f57600080fd5b5061034a60048036038101906103459190611c05565b610703565b6040516103579190611c60565b60405180910390f35b34801561036c57600080fd5b50610375610726565b6040516103829190611b3b565b60405180910390f35b34801561039757600080fd5b506103b260048036038101906103ad9190611ef4565b61075f565b005b3480156103c057600080fd5b506103db60048036038101906103d69190611f4b565b61096a565b6040516103e89190611c8a565b60405180910390f35b3480156103fd57600080fd5b5061041860048036038101906104139190611ef4565b6109ff565b005b34801561042657600080fd5b50610441600480360381019061043c9190611feb565b610a85565b005b6060600061044f610ae6565b90508060030180546104609061207a565b80601f016020809104026020016040519081016040528092919081815260200182805461048c9061207a565b80156104d95780601f106104ae576101008083540402835291602001916104d9565b820191906000526020600020905b8154815290600101906020018083116104bc57829003601f168201915b505050505091505090565b6000806104ef610b0e565b90506104fc818585610b16565b600191505092915050565b600080610512610ae6565b9050806002015491505090565b60008061052a610b0e565b9050610537858285610b28565b610542858585610bbc565b60019150509392505050565b60006008905090565b61055f610cb0565b6105698282610d37565b5050565b610575610db9565b61057e82610e9f565b6105888282610eaa565b5050565b6000610596610fc9565b7f360894a13ba1a3210667c828492db98dca3e2076cc3735a920a3ca505d382bbc60001b905090565b6000806105ca610ae6565b90508060000160008473ffffffffffffffffffffffffffffffffffffffff1673ffffffffffffffffffffffffffffffffffffffff16815260200190815260200160002054915050919050565b61061e610cb0565b6106286000611050565b565b600080610635611127565b90508060000160009054906101000a900473ffffffffffffffffffffffffffffffffffffffff1691505090565b6060600061066e610ae6565b905080600401805461067f9061207a565b80601f01602080910402602001604051908101604052809291908181526020018280546106ab9061207a565b80156106f85780601f106106cd576101008083540402835291602001916106f8565b820191906000526020600020905b8154815290600101906020018083116106db57829003601f168201915b505050505091505090565b60008061070e610b0e565b905061071b818585610bbc565b600191505092915050565b6040518060400160405280600581526020017f352e302e3000000000000000000000000000000000000000000000000000000081525081565b600061076961114f565b905060008160000160089054906101000a900460ff1615905060008260000160009054906101000a900467ffffffffffffffff1690506000808267ffffffffffffffff161480156107b75750825b9050600060018367ffffffffffffffff161480156107ec575060003073ffffffffffffffffffffffffffffffffffffffff163b145b9050811580156107fa575080155b15610831576040517ff92ee8a900000000000000000000000000000000000000000000000000000000815260040160405180910390fd5b60018560000160006101000a81548167ffffffffffffffff021916908367ffffffffffffffff16021790555083156108815760018560000160086101000a81548160ff0219169083151502179055505b6108f56040518060400160405280600f81526020017f5772617070656420426974636f696e00000000000000000000000000000000008152506040518060400160405280600481526020017f5742544300000000000000000000000000000000000000000000000000000000815250611177565b6108fe8661118d565b6109066111a1565b83156109625760008560000160086101000a81548160ff0219169083151502179055507fc7f505b2f371ae2175ee4913f4499e1f2633a7b5936321eed1cdaeb6115181d260016040516109599190612104565b60405180910390a15b505050505050565b600080610975610ae6565b90508060010160008573ffffffffffffffffffffffffffffffffffffffff1673ffffffffffffffffffffffffffffffffffffffff16815260200190815260200160002060008473ffffffffffffffffffffffffffffffffffffffff1673ffffffffffffffffffffffffffffffffffffffff1681526020019081526020016000205491505092915050565b610a07610cb0565b600073ffffffffffffffffffffffffffffffffffffffff168173ffffffffffffffffffffffffffffffffffffffff1603610a795760006040517f1e4fbdf7000000000000000000000000000000000000000000000000000000008152600401610a709190611f30565b60405180910390fd5b610a8281611050565b50565b610a8f33846111ab565b3373ffffffffffffffffffffffffffffffffffffffff167f91534ba07552fcbe2d95d73f5f9095b70aad1e34edeef43bb70125805e21ab8e848484604051610ad99392919061215d565b60405180910390a2505050565b60007f52c63247e1f47db19d5ce0460030c497f067ca4cebf71ba98eeadabe20bace00905090565b600033905090565b610b23838383600161122d565b505050565b6000610b34848461096a565b90507fffffffffffffffffffffffffffffffffffffffffffffffffffffffffffffffff8114610bb65781811015610ba6578281836040517ffb8f41b2000000000000000000000000000000000000000000000000000000008152600401610b9d9392919061218f565b60405180910390fd5b610bb58484848403600061122d565b5b50505050565b600073ffffffffffffffffffffffffffffffffffffffff168373ffffffffffffffffffffffffffffffffffffffff1603610c2e5760006040517f96c6fd1e000000000000000000000000000000000000000000000000000000008152600401610c259190611f30565b60405180910390fd5b600073ffffffffffffffffffffffffffffffffffffffff168273ffffffffffffffffffffffffffffffffffffffff1603610ca05760006040517fec442f05000000000000000000000000000000000000000000000000000000008152600401610c979190611f30565b60405180910390fd5b610cab838383611413565b505050565b610cb8610b0e565b73ffffffffffffffffffffffffffffffffffffffff16610cd661062a565b73ffffffffffffffffffffffffffffffffffffffff1614610d3557610cf9610b0e565b6040517f118cdaa7000000000000000000000000000000000000000000000000000000008152600401610d2c9190611f30565b60405180910390fd5b565b600073ffffffffffffffffffffffffffffffffffffffff168273ffffffffffffffffffffffffffffffffffffffff1603610da95760006040517fec442f05000000000000000000000000000000000000000000000000000000008152600401610da09190611f30565b60405180910390fd5b610db560008383611413565b5050565b7f000000000000000000000000000000000000000000000000000000000000000073ffffffffffffffffffffffffffffffffffffffff163073ffffffffffffffffffffffffffffffffffffffff161480610e6657507f000000000000000000000000000000000000000000000000000000000000000073ffffffffffffffffffffffffffffffffffffffff16610e4d611652565b73ffffffffffffffffffffffffffffffffffffffff1614155b15610e9d576040517fe07c8dba00000000000000000000000000000000000000000000000000000000815260040160405180910390fd5b565b610ea7610cb0565b50565b8173ffffffffffffffffffffffffffffffffffffffff166352d1902d6040518163ffffffff1660e01b8152600401602060405180830381865afa925050508015610f1257506040513d601f19601f82011682018060405250810190610f0f91906121f2565b60015b610f5357816040517f4c9c8ce3000000000000000000000000000000000000000000000000000000008152600401610f4a9190611f30565b60405180910390fd5b7f360894a13ba1a3210667c828492db98dca3e2076cc3735a920a3ca505d382bbc60001b8114610fba57806040517faa1d49a4000000000000000000000000000000000000000000000000000000008152600401610fb19190611ed9565b60405180910390fd5b610fc483836116a9565b505050565b7f000000000000000000000000000000000000000000000000000000000000000073ffffffffffffffffffffffffffffffffffffffff163073ffffffffffffffffffffffffffffffffffffffff161461104e576040517fe07c8dba00000000000000000000000000000000000000000000000000000000815260040160405180910390fd5b565b600061105a611127565b905060008160000160009054906101000a900473ffffffffffffffffffffffffffffffffffffffff169050828260000160006101000a81548173ffffffffffffffffffffffffffffffffffffffff021916908373ffffffffffffffffffffffffffffffffffffffff1602179055508273ffffffffffffffffffffffffffffffffffffffff168173ffffffffffffffffffffffffffffffffffffffff167f8be0079c531659141344cd1fd0a4f28419497f9722a3daafe3b4186f6b6457e060405160405180910390a3505050565b60007f9016d09d72d40fdae2fd8ceac6b6234c7706214fd39c1cd1e609a0528c199300905090565b60007ff0c57e16840df040f15088dc2f81fe391c3923bec73e23a9662efc9c229c6a00905090565b61117f61171c565b611189828261175c565b5050565b61119561171c565b61119e81611799565b50565b6111a961171c565b565b600073ffffffffffffffffffffffffffffffffffffffff168273ffffffffffffffffffffffffffffffffffffffff160361121d5760006040517f96c6fd1e0000000000000000000000000000000000000000000000000000000081526004016112149190611f30565b60405180910390fd5b61122982600083611413565b5050565b6000611237610ae6565b9050600073ffffffffffffffffffffffffffffffffffffffff168573ffffffffffffffffffffffffffffffffffffffff16036112ab5760006040517fe602df050000000000000000000000000000000000000000000000000000000081526004016112a29190611f30565b60405180910390fd5b600073ffffffffffffffffffffffffffffffffffffffff168473ffffffffffffffffffffffffffffffffffffffff160361131d5760006040517f94280d620000000000000000000000000000000000000000000000000000000081526004016113149190611f30565b60405180910390fd5b828160010160008773ffffffffffffffffffffffffffffffffffffffff1673ffffffffffffffffffffffffffffffffffffffff16815260200190815260200160002060008673ffffffffffffffffffffffffffffffffffffffff1673ffffffffffffffffffffffffffffffffffffffff16815260200190815260200160002081905550811561140c578373ffffffffffffffffffffffffffffffffffffffff168573ffffffffffffffffffffffffffffffffffffffff167f8c5be1e5ebec7d5bd14f71427d1e84f3dd0314c0f7b2291e5b200ac8c7c3b925856040516114039190611c8a565b60405180910390a35b5050505050565b600061141d610ae6565b9050600073ffffffffffffffffffffffffffffffffffffffff168473ffffffffffffffffffffffffffffffffffffffff16036114735781816002016000828254611467919061224e565b9250508190555061154c565b60008160000160008673ffffffffffffffffffffffffffffffffffffffff1673ffffffffffffffffffffffffffffffffffffffff16815260200190815260200160002054905082811015611502578481846040517fe450d38c0000000000000000000000000000000000000000000000000000000081526004016114f99392919061218f565b60405180910390fd5b8281038260000160008773ffffffffffffffffffffffffffffffffffffffff1673ffffffffffffffffffffffffffffffffffffffff16815260200190815260200160002081905550505b600073ffffffffffffffffffffffffffffffffffffffff168373ffffffffffffffffffffffffffffffffffffffff1603611597578181600201600082825403925050819055506115e7565b818160000160008573ffffffffffffffffffffffffffffffffffffffff1673ffffffffffffffffffffffffffffffffffffffff168152602001908152602001600020600082825401925050819055505b8273ffffffffffffffffffffffffffffffffffffffff168473ffffffffffffffffffffffffffffffffffffffff167fddf252ad1be2c89b69c2b068fc378daa952ba7f163c4a11628f55a4df523b3ef846040516116449190611c8a565b60405180910390a350505050565b60006116807f360894a13ba1a3210667c828492db98dca3e2076cc3735a920a3ca505d382bbc60001b61181f565b60000160009054906101000a900473ffffffffffffffffffffffffffffffffffffffff16905090565b6116b282611829565b8173ffffffffffffffffffffffffffffffffffffffff167fbc7cd75a20ee27fd9adebab32041f755214dbc6bffa90cc0225b39da2e5c2d3b60405160405180910390a260008151111561170f5761170982826118f6565b50611718565b61171761197a565b5b5050565b6117246119b7565b61175a576040517fd7e6bcf800000000000000000000000000000000000000000000000000000000815260040160405180910390fd5b565b61176461171c565b600061176e610ae6565b9050828160030190816117819190612424565b50818160040190816117939190612424565b50505050565b6117a161171c565b600073ffffffffffffffffffffffffffffffffffffffff168173ffffffffffffffffffffffffffffffffffffffff16036118135760006040517f1e4fbdf700000000000000000000000000000000000000000000000000000000815260040161180a9190611f30565b60405180910390fd5b61181c81611050565b50565b6000819050919050565b60008173ffffffffffffffffffffffffffffffffffffffff163b0361188557806040517f4c9c8ce300000000000000000000000000000000000000000000000000000000815260040161187c9190611f30565b60405180910390fd5b806118b27f360894a13ba1a3210667c828492db98dca3e2076cc3735a920a3ca505d382bbc60001b61181f565b60000160006101000a81548173ffffffffffffffffffffffffffffffffffffffff021916908373ffffffffffffffffffffffffffffffffffffffff16021790555050565b60606000808473ffffffffffffffffffffffffffffffffffffffff1684604051611920919061253d565b600060405180830381855af49150503d806000811461195b576040519150601f19603f3d011682016040523d82523d6000602084013e611960565b606091505b50915091506119708583836119d7565b9250505092915050565b60003411156119b5576040517fb398979f00000000000000000000000000000000000000000000000000000000815260040160405180910390fd5b565b60006119c161114f565b60000160089054906101000a900460ff16905090565b6060826119ec576119e782611a66565b611a5e565b60008251148015611a14575060008473ffffffffffffffffffffffffffffffffffffffff163b145b15611a5657836040517f9996b315000000000000000000000000000000000000000000000000000000008152600401611a4d9190611f30565b60405180910390fd5b819050611a5f565b5b9392505050565b600081511115611a795780518082602001fd5b6040517f1425ea4200000000000000000000000000000000000000000000000000000000815260040160405180910390fd5b600081519050919050565b600082825260208201905092915050565b60005b83811015611ae5578082015181840152602081019050611aca565b60008484015250505050565b6000601f19601f8301169050919050565b6000611b0d82611aab565b611b178185611ab6565b9350611b27818560208601611ac7565b611b3081611af1565b840191505092915050565b60006020820190508181036000830152611b558184611b02565b905092915050565b6000604051905090565b600080fd5b600080fd5b600073ffffffffffffffffffffffffffffffffffffffff82169050919050565b6000611b9c82611b71565b9050919050565b611bac81611b91565b8114611bb757600080fd5b50565b600081359050611bc981611ba3565b92915050565b6000819050919050565b611be281611bcf565b8114611bed57600080fd5b50565b600081359050611bff81611bd9565b92915050565b60008060408385031215611c1c57611c1b611b67565b5b6000611c2a85828601611bba565b9250506020611c3b85828601611bf0565b9150509250929050565b60008115159050919050565b611c5a81611c45565b82525050565b6000602082019050611c756000830184611c51565b92915050565b611c8481611bcf565b82525050565b6000602082019050611c9f6000830184611c7b565b92915050565b600080600060608486031215611cbe57611cbd611b67565b5b6000611ccc86828701611bba565b9350506020611cdd86828701611bba565b9250506040611cee86828701611bf0565b9150509250925092565b600060ff82169050919050565b611d0e81611cf8565b82525050565b6000602082019050611d296000830184611d05565b92915050565b600080fd5b600080fd5b7f4e487b7100000000000000000000000000000000000000000000000000000000600052604160045260246000fd5b611d7182611af1565b810181811067ffffffffffffffff82111715611d9057611d8f611d39565b5b80604052505050565b6000611da3611b5d565b9050611daf8282611d68565b919050565b600067ffffffffffffffff821115611dcf57611dce611d39565b5b611dd882611af1565b9050602081019050919050565b82818337600083830152505050565b6000611e07611e0284611db4565b611d99565b905082815260208101848484011115611e2357611e22611d34565b5b611e2e848285611de5565b509392505050565b600082601f830112611e4b57611e4a611d2f565b5b8135611e5b848260208601611df4565b91505092915050565b60008060408385031215611e7b57611e7a611b67565b5b6000611e8985828601611bba565b925050602083013567ffffffffffffffff811115611eaa57611ea9611b6c565b5b611eb685828601611e36565b9150509250929050565b6000819050919050565b611ed381611ec0565b82525050565b6000602082019050611eee6000830184611eca565b92915050565b600060208284031215611f0a57611f09611b67565b5b6000611f1884828501611bba565b91505092915050565b611f2a81611b91565b82525050565b6000602082019050611f456000830184611f21565b92915050565b60008060408385031215611f6257611f61611b67565b5b6000611f7085828601611bba565b9250506020611f8185828601611bba565b9150509250929050565b600080fd5b600080fd5b60008083601f840112611fab57611faa611d2f565b5b8235905067ffffffffffffffff811115611fc857611fc7611f8b565b5b602083019150836001820283011115611fe457611fe3611f90565b5b9250929050565b60008060006040848603121561200457612003611b67565b5b600061201286828701611bf0565b935050602084013567ffffffffffffffff81111561203357612032611b6c565b5b61203f86828701611f95565b92509250509250925092565b7f4e487b7100000000000000000000000000000000000000000000000000000000600052602260045260246000fd5b6000600282049050600182168061209257607f821691505b6020821081036120a5576120a461204b565b5b50919050565b6000819050919050565b600067ffffffffffffffff82169050919050565b6000819050919050565b60006120ee6120e96120e4846120ab565b6120c9565b6120b5565b9050919050565b6120fe816120d3565b82525050565b600060208201905061211960008301846120f5565b92915050565b600082825260208201905092915050565b600061213c838561211f565b9350612149838584611de5565b61215283611af1565b840190509392505050565b60006040820190506121726000830186611c7b565b8181036020830152612185818486612130565b9050949350505050565b60006060820190506121a46000830186611f21565b6121b16020830185611c7b565b6121be6040830184611c7b565b949350505050565b6121cf81611ec0565b81146121da57600080fd5b50565b6000815190506121ec816121c6565b92915050565b60006020828403121561220857612207611b67565b5b6000612216848285016121dd565b91505092915050565b7f4e487b7100000000000000000000000000000000000000000000000000000000600052601160045260246000fd5b600061225982611bcf565b915061226483611bcf565b925082820190508082111561227c5761227b61221f565b5b92915050565b60008190508160005260206000209050919050565b60006020601f8301049050919050565b600082821b905092915050565b6000600883026122e47fffffffffffffffffffffffffffffffffffffffffffffffffffffffffffffffff826122a7565b6122ee86836122a7565b95508019841693508086168417925050509392505050565b600061232161231c61231784611bcf565b6120c9565b611bcf565b9050919050565b6000819050919050565b61233b83612306565b61234f61234782612328565b8484546122b4565b825550505050565b600090565b612364612357565b61236f818484612332565b505050565b5b818110156123935761238860008261235c565b600181019050612375565b5050565b601f8211156123d8576123a981612282565b6123b284612297565b810160208510156123c1578190505b6123d56123cd85612297565b830182612374565b50505b505050565b600082821c905092915050565b60006123fb600019846008026123dd565b1980831691505092915050565b600061241483836123ea565b9150826002028217905092915050565b61242d82611aab565b67ffffffffffffffff81111561244657612445611d39565b5b612450825461207a565b61245b828285612397565b600060209050601f83116001811461248e576000841561247c578287015190505b6124868582612408565b8655506124ee565b601f19841661249c86612282565b60005b828110156124c45784890151825560018201915060208501945060208101905061249f565b868310156124e157848901516124dd601f8916826123ea565b8355505b6001600288020188555050505b505050505050565b600081519050919050565b600081905092915050565b6000612517826124f6565b6125218185612501565b9350612531818560208601611ac7565b80840191505092915050565b6000612549828461250c565b91508190509291505056fea26469706673582212208e2ac222bdc4a3b3f3576c714f8db13457ed4a50f75855d407a4d43bed186d3864736f6c63430008140033",
  "linkReferences": {},
  "deployedLinkReferences": {}
}